{
    "_format": "hh-sol-artifact-1",
    "contractName": "APEnergy",
    "sourceName": "contracts/APEnergy.sol",
    "abi": [
        {
            "anonymous": false,
            "inputs": [
                {
                    "indexed": true,
                    "internalType": "address",
                    "name": "participant",
                    "type": "address"
                },
                {
                    "indexed": false,
                    "internalType": "uint256",
                    "name": "timestamp",
                    "type": "uint256"
                }
            ],
            "name": "ParticipantAdded",
            "type": "event"
        },
        {
            "anonymous": false,
            "inputs": [
                {
                    "indexed": true,
                    "internalType": "address",
                    "name": "resource",
                    "type": "address"
                },
                {
                    "indexed": false,
                    "internalType": "uint256",
                    "name": "timestamp",
                    "type": "uint256"
                },
                {
                    "indexed": false,
                    "internalType": "string",
                    "name": "dayConsumption",
                    "type": "string"
                },
                {
                    "indexed": false,
                    "internalType": "string",
                    "name": "dayProduction",
                    "type": "string"
                }
            ],
            "name": "PowerLogged",
            "type": "event"
        },
        {
            "anonymous": false,
            "inputs": [
                {
                    "indexed": true,
                    "internalType": "address",
                    "name": "participant",
                    "type": "address"
                },
                {
                    "indexed": true,
                    "internalType": "address",
                    "name": "resource",
                    "type": "address"
                },
                {
                    "indexed": false,
                    "internalType": "uint256",
                    "name": "timestamp",
                    "type": "uint256"
                },
                {
                    "indexed": false,
                    "internalType": "string",
                    "name": "resourceType",
                    "type": "string"
                }
            ],
            "name": "ResourceAdded",
            "type": "event"
        },
        {
            "anonymous": false,
            "inputs": [
                {
                    "indexed": true,
                    "internalType": "bytes32",
                    "name": "role",
                    "type": "bytes32"
                },
                {
                    "indexed": true,
                    "internalType": "bytes32",
                    "name": "previousAdminRole",
                    "type": "bytes32"
                },
                {
                    "indexed": true,
                    "internalType": "bytes32",
                    "name": "newAdminRole",
                    "type": "bytes32"
                }
            ],
            "name": "RoleAdminChanged",
            "type": "event"
        },
        {
            "anonymous": false,
            "inputs": [
                {
                    "indexed": true,
                    "internalType": "bytes32",
                    "name": "role",
                    "type": "bytes32"
                },
                {
                    "indexed": true,
                    "internalType": "address",
                    "name": "account",
                    "type": "address"
                },
                {
                    "indexed": true,
                    "internalType": "address",
                    "name": "sender",
                    "type": "address"
                }
            ],
            "name": "RoleGranted",
            "type": "event"
        },
        {
            "anonymous": false,
            "inputs": [
                {
                    "indexed": true,
                    "internalType": "bytes32",
                    "name": "role",
                    "type": "bytes32"
                },
                {
                    "indexed": true,
                    "internalType": "address",
                    "name": "account",
                    "type": "address"
                },
                {
                    "indexed": true,
                    "internalType": "address",
                    "name": "sender",
                    "type": "address"
                }
            ],
            "name": "RoleRevoked",
            "type": "event"
        },
        {
            "inputs": [],
            "name": "DEFAULT_ADMIN_ROLE",
            "outputs": [
                {
                    "internalType": "bytes32",
                    "name": "",
                    "type": "bytes32"
                }
            ],
            "stateMutability": "view",
            "type": "function"
        },
        {
            "inputs": [],
            "name": "addParticipant",
            "outputs": [],
            "stateMutability": "nonpayable",
            "type": "function"
        },
        {
            "inputs": [
                {
                    "internalType": "address",
                    "name": "_resourceAddress",
                    "type": "address"
                },
                {
                    "internalType": "string",
                    "name": "_resourceType",
                    "type": "string"
                }
            ],
            "name": "addResource",
            "outputs": [],
            "stateMutability": "nonpayable",
            "type": "function"
        },
        {
            "inputs": [
                {
                    "internalType": "address",
                    "name": "_participantAddress",
                    "type": "address"
                }
            ],
            "name": "getParticipantResources",
            "outputs": [
                {
                    "internalType": "address[]",
                    "name": "resources_",
                    "type": "address[]"
                }
            ],
            "stateMutability": "view",
            "type": "function"
        },
        {
            "inputs": [],
            "name": "getParticipants",
            "outputs": [
                {
                    "internalType": "address[]",
                    "name": "participants_",
                    "type": "address[]"
                }
            ],
            "stateMutability": "view",
            "type": "function"
        },
        {
            "inputs": [
                {
                    "internalType": "address",
                    "name": "_resource",
                    "type": "address"
                }
            ],
            "name": "getResourcePowerConsumption",
            "outputs": [
                {
                    "components": [
                        {
                            "internalType": "uint256",
                            "name": "timestamp",
                            "type": "uint256"
                        },
                        {
                            "internalType": "string",
                            "name": "dayConsumption",
                            "type": "string"
                        },
                        {
                            "internalType": "string",
                            "name": "dayProduction",
                            "type": "string"
                        }
                    ],
                    "internalType": "struct APEnergy.LoggedPower[]",
                    "name": "",
                    "type": "tuple[]"
                }
            ],
            "stateMutability": "view",
            "type": "function"
        },
        {
            "inputs": [
                {
                    "internalType": "bytes32",
                    "name": "role",
                    "type": "bytes32"
                }
            ],
            "name": "getRoleAdmin",
            "outputs": [
                {
                    "internalType": "bytes32",
                    "name": "",
                    "type": "bytes32"
                }
            ],
            "stateMutability": "view",
            "type": "function"
        },
        {
            "inputs": [
                {
                    "internalType": "bytes32",
                    "name": "role",
                    "type": "bytes32"
                },
                {
                    "internalType": "address",
                    "name": "account",
                    "type": "address"
                }
            ],
            "name": "grantRole",
            "outputs": [],
            "stateMutability": "nonpayable",
            "type": "function"
        },
        {
            "inputs": [
                {
                    "internalType": "bytes32",
                    "name": "role",
                    "type": "bytes32"
                },
                {
                    "internalType": "address",
                    "name": "account",
                    "type": "address"
                }
            ],
            "name": "hasRole",
            "outputs": [
                {
                    "internalType": "bool",
                    "name": "",
                    "type": "bool"
                }
            ],
            "stateMutability": "view",
            "type": "function"
        },
        {
            "inputs": [
                {
                    "internalType": "uint256",
                    "name": "_timestamp",
                    "type": "uint256"
                },
                {
                    "internalType": "string",
                    "name": "_dayConsumption",
                    "type": "string"
                },
                {
                    "internalType": "string",
                    "name": "_dayProduction",
                    "type": "string"
                }
            ],
            "name": "logPowerConsumption",
            "outputs": [],
            "stateMutability": "nonpayable",
            "type": "function"
        },
        {
            "inputs": [
                {
                    "internalType": "uint256",
                    "name": "",
                    "type": "uint256"
                }
            ],
            "name": "participants",
            "outputs": [
                {
                    "internalType": "address",
                    "name": "",
                    "type": "address"
                }
            ],
            "stateMutability": "view",
            "type": "function"
        },
        {
            "inputs": [
                {
                    "internalType": "bytes32",
                    "name": "role",
                    "type": "bytes32"
                },
                {
                    "internalType": "address",
                    "name": "account",
                    "type": "address"
                }
            ],
            "name": "renounceRole",
            "outputs": [],
            "stateMutability": "nonpayable",
            "type": "function"
        },
        {
            "inputs": [
                {
                    "internalType": "bytes32",
                    "name": "role",
                    "type": "bytes32"
                },
                {
                    "internalType": "address",
                    "name": "account",
                    "type": "address"
                }
            ],
            "name": "revokeRole",
            "outputs": [],
            "stateMutability": "nonpayable",
            "type": "function"
        },
        {
            "inputs": [
                {
                    "internalType": "bytes4",
                    "name": "interfaceId",
                    "type": "bytes4"
                }
            ],
            "name": "supportsInterface",
            "outputs": [
                {
                    "internalType": "bool",
                    "name": "",
                    "type": "bool"
                }
            ],
            "stateMutability": "view",
            "type": "function"
        }
    ],
    "bytecode": "0x60c06040527fffb743871ff677192c3a3b8a20e987c20c4e07a51039934079d57be89e25a0856080908152507fcd121b0f12ad3ac664bfec4c6cdef2ec02345000d81f4e9e651075fc22d1b9b560a09081525034801561005e57600080fd5b5060805160a05161245461008b600039600081816105190152610e6d015260006105c901526124546000f3fe608060405234801561001057600080fd5b50600436106100ea5760003560e01c80635aa68ac01161008c578063a217fddf11610066578063a217fddf1461026d578063d547741f1461028b578063e807b233146102a7578063fffefd91146102d7576100ea565b80635aa68ac0146101ef5780637c08c29f1461020d57806391d148541461023d576100ea565b8063248a9ca3116100c8578063248a9ca3146101575780632f2ff15d1461018757806335c1d349146101a357806336568abe146101d3576100ea565b806301ffc9a7146100ef57806306835e0d1461011f578063087f388a1461013b575b600080fd5b61010960048036038101906101049190611487565b6102e1565b60405161011691906114cf565b60405180910390f35b61013960048036038101906101349190611585565b61035b565b005b61015560048036038101906101509190611678565b6104fb565b005b610171600480360381019061016c919061170e565b610712565b60405161017e919061174a565b60405180910390f35b6101a1600480360381019061019c9190611765565b610731565b005b6101bd60048036038101906101b891906117a5565b610752565b6040516101ca91906117e1565b60405180910390f35b6101ed60048036038101906101e89190611765565b610791565b005b6101f7610814565b60405161020491906118ba565b60405180910390f35b610227600480360381019061022291906118dc565b610919565b6040516102349190611ac1565b60405180910390f35b61025760048036038101906102529190611765565b610ae5565b60405161026491906114cf565b60405180910390f35b610275610b4f565b604051610282919061174a565b60405180910390f35b6102a560048036038101906102a09190611765565b610b56565b005b6102c160048036038101906102bc91906118dc565b610b77565b6040516102ce91906118ba565b60405180910390f35b6102df610d35565b005b60007f7965db0b000000000000000000000000000000000000000000000000000000007bffffffffffffffffffffffffffffffffffffffffffffffffffffffff1916827bffffffffffffffffffffffffffffffffffffffffffffffffffffffff19161480610354575061035382610ee2565b5b9050919050565b600460003373ffffffffffffffffffffffffffffffffffffffff1673ffffffffffffffffffffffffffffffffffffffff168152602001908152602001600020604051806060016040528087815260200186868080601f016020809104026020016040519081016040528093929190818152602001838380828437600081840152601f19601f82011690508083019250505050505050815260200184848080601f016020809104026020016040519081016040528093929190818152602001838380828437600081840152601f19601f8201169050808301925050505050505081525090806001815401808255809150506001900390600052602060002090600302016000909190919091506000820151816000015560208201518160010190816104859190611d1e565b50604082015181600201908161049b9190611d1e565b5050503373ffffffffffffffffffffffffffffffffffffffff167fa5c8caaedcd82f08e797ec322fd406fdb3ccaaba4487a53103e307cb86d7662d86868686866040516104ec959493929190611e4c565b60405180910390a25050505050565b6040518060600160405280602381526020016123fc6023913961053e7f000000000000000000000000000000000000000000000000000000000000000033610ae5565b8190610580576040517f08c379a00000000000000000000000000000000000000000000000000000000081526004016105779190611ece565b60405180910390fd5b506000600260008673ffffffffffffffffffffffffffffffffffffffff1673ffffffffffffffffffffffffffffffffffffffff16815260200190815260200160002090506105ee7f000000000000000000000000000000000000000000000000000000000000000086610f4c565b8383826000019182610601929190611efb565b50600360003373ffffffffffffffffffffffffffffffffffffffff1673ffffffffffffffffffffffffffffffffffffffff168152602001908152602001600020859080600181540180825580915050600190039060005260206000200160009091909190916101000a81548173ffffffffffffffffffffffffffffffffffffffff021916908373ffffffffffffffffffffffffffffffffffffffff1602179055508473ffffffffffffffffffffffffffffffffffffffff163373ffffffffffffffffffffffffffffffffffffffff167f607b971c351e1d01879047e5b98de391549a510f7f96305161590bcb87afd5db42878760405161070393929190611fcb565b60405180910390a35050505050565b6000806000838152602001908152602001600020600101549050919050565b61073a82610712565b61074381610f5a565b61074d8383610f6e565b505050565b6001818154811061076257600080fd5b906000526020600020016000915054906101000a900473ffffffffffffffffffffffffffffffffffffffff1681565b61079961104e565b73ffffffffffffffffffffffffffffffffffffffff168173ffffffffffffffffffffffffffffffffffffffff1614610806576040517f08c379a00000000000000000000000000000000000000000000000000000000081526004016107fd9061206f565b60405180910390fd5b6108108282611056565b5050565b606060018054905067ffffffffffffffff81111561083557610834611ae3565b5b6040519080825280602002602001820160405280156108635781602001602082028036833780820191505090505b50905060005b600180549050811015610915576001818154811061088a5761088961208f565b5b9060005260206000200160009054906101000a900473ffffffffffffffffffffffffffffffffffffffff168282815181106108c8576108c761208f565b5b602002602001019073ffffffffffffffffffffffffffffffffffffffff16908173ffffffffffffffffffffffffffffffffffffffff1681525050808061090d906120ed565b915050610869565b5090565b6060600460008373ffffffffffffffffffffffffffffffffffffffff1673ffffffffffffffffffffffffffffffffffffffff168152602001908152602001600020805480602002602001604051908101604052809291908181526020016000905b82821015610ada5783829060005260206000209060030201604051806060016040529081600082015481526020016001820180546109b790611b41565b80601f01602080910402602001604051908101604052809291908181526020018280546109e390611b41565b8015610a305780601f10610a0557610100808354040283529160200191610a30565b820191906000526020600020905b815481529060010190602001808311610a1357829003601f168201915b50505050508152602001600282018054610a4990611b41565b80601f0160208091040260200160405190810160405280929190818152602001828054610a7590611b41565b8015610ac25780601f10610a9757610100808354040283529160200191610ac2565b820191906000526020600020905b815481529060010190602001808311610aa557829003601f168201915b5050505050815250508152602001906001019061097a565b505050509050919050565b600080600084815260200190815260200160002060000160008373ffffffffffffffffffffffffffffffffffffffff1673ffffffffffffffffffffffffffffffffffffffff16815260200190815260200160002060009054906101000a900460ff16905092915050565b6000801b81565b610b5f82610712565b610b6881610f5a565b610b728383611056565b505050565b6060600360008373ffffffffffffffffffffffffffffffffffffffff1673ffffffffffffffffffffffffffffffffffffffff1681526020019081526020016000208054905067ffffffffffffffff811115610bd557610bd4611ae3565b5b604051908082528060200260200182016040528015610c035781602001602082028036833780820191505090505b50905060005b600360008473ffffffffffffffffffffffffffffffffffffffff1673ffffffffffffffffffffffffffffffffffffffff16815260200190815260200160002080549050811015610d2f57600360008473ffffffffffffffffffffffffffffffffffffffff1673ffffffffffffffffffffffffffffffffffffffff1681526020019081526020016000208181548110610ca457610ca361208f565b5b9060005260206000200160009054906101000a900473ffffffffffffffffffffffffffffffffffffffff16828281518110610ce257610ce161208f565b5b602002602001019073ffffffffffffffffffffffffffffffffffffffff16908173ffffffffffffffffffffffffffffffffffffffff16815250508080610d27906120ed565b915050610c09565b50919050565b60005b600180549050811015610e04573373ffffffffffffffffffffffffffffffffffffffff1660018281548110610d7057610d6f61208f565b5b9060005260206000200160009054906101000a900473ffffffffffffffffffffffffffffffffffffffff1673ffffffffffffffffffffffffffffffffffffffff1603610df1576040517f08c379a0000000000000000000000000000000000000000000000000000000008152600401610de8906121a7565b60405180910390fd5b8080610dfc906120ed565b915050610d38565b506001339080600181540180825580915050600190039060005260206000200160009091909190916101000a81548173ffffffffffffffffffffffffffffffffffffffff021916908373ffffffffffffffffffffffffffffffffffffffff160217905550610e927f000000000000000000000000000000000000000000000000000000000000000033610f4c565b3373ffffffffffffffffffffffffffffffffffffffff167f287ab65235aa9a0baeed5b973fda48c77ebdc6f3dd931cfda1c082c0aecc1e7342604051610ed891906121c7565b60405180910390a2565b60007f01ffc9a7000000000000000000000000000000000000000000000000000000007bffffffffffffffffffffffffffffffffffffffffffffffffffffffff1916827bffffffffffffffffffffffffffffffffffffffffffffffffffffffff1916149050919050565b610f568282610f6e565b5050565b610f6b81610f6661104e565b611137565b50565b610f788282610ae5565b61104a57600160008084815260200190815260200160002060000160008373ffffffffffffffffffffffffffffffffffffffff1673ffffffffffffffffffffffffffffffffffffffff16815260200190815260200160002060006101000a81548160ff021916908315150217905550610fef61104e565b73ffffffffffffffffffffffffffffffffffffffff168173ffffffffffffffffffffffffffffffffffffffff16837f2f8788117e7eff1d82e926ec794901d17c78024a50270940304540a733656f0d60405160405180910390a45b5050565b600033905090565b6110608282610ae5565b1561113357600080600084815260200190815260200160002060000160008373ffffffffffffffffffffffffffffffffffffffff1673ffffffffffffffffffffffffffffffffffffffff16815260200190815260200160002060006101000a81548160ff0219169083151502179055506110d861104e565b73ffffffffffffffffffffffffffffffffffffffff168173ffffffffffffffffffffffffffffffffffffffff16837ff6391f5c32d9c69d2a47ea670b442974b53935d1edc7fd64eb21e047a839171b60405160405180910390a45b5050565b6111418282610ae5565b6111b85761114e816111bc565b61115c8360001c60206111e9565b60405160200161116d9291906122b6565b6040516020818303038152906040526040517f08c379a00000000000000000000000000000000000000000000000000000000081526004016111af9190611ece565b60405180910390fd5b5050565b60606111e28273ffffffffffffffffffffffffffffffffffffffff16601460ff166111e9565b9050919050565b6060600060028360026111fc91906122f0565b6112069190612332565b67ffffffffffffffff81111561121f5761121e611ae3565b5b6040519080825280601f01601f1916602001820160405280156112515781602001600182028036833780820191505090505b5090507f3000000000000000000000000000000000000000000000000000000000000000816000815181106112895761128861208f565b5b60200101907effffffffffffffffffffffffffffffffffffffffffffffffffffffffffffff1916908160001a9053507f7800000000000000000000000000000000000000000000000000000000000000816001815181106112ed576112ec61208f565b5b60200101907effffffffffffffffffffffffffffffffffffffffffffffffffffffffffffff1916908160001a9053506000600184600261132d91906122f0565b6113379190612332565b90505b60018111156113d7577f3031323334353637383961626364656600000000000000000000000000000000600f8616601081106113795761137861208f565b5b1a60f81b8282815181106113905761138f61208f565b5b60200101907effffffffffffffffffffffffffffffffffffffffffffffffffffffffffffff1916908160001a905350600485901c9450806113d090612366565b905061133a565b506000841461141b576040517f08c379a0000000000000000000000000000000000000000000000000000000008152600401611412906123db565b60405180910390fd5b8091505092915050565b600080fd5b600080fd5b60007fffffffff0000000000000000000000000000000000000000000000000000000082169050919050565b6114648161142f565b811461146f57600080fd5b50565b6000813590506114818161145b565b92915050565b60006020828403121561149d5761149c611425565b5b60006114ab84828501611472565b91505092915050565b60008115159050919050565b6114c9816114b4565b82525050565b60006020820190506114e460008301846114c0565b92915050565b6000819050919050565b6114fd816114ea565b811461150857600080fd5b50565b60008135905061151a816114f4565b92915050565b600080fd5b600080fd5b600080fd5b60008083601f84011261154557611544611520565b5b8235905067ffffffffffffffff81111561156257611561611525565b5b60208301915083600182028301111561157e5761157d61152a565b5b9250929050565b6000806000806000606086880312156115a1576115a0611425565b5b60006115af8882890161150b565b955050602086013567ffffffffffffffff8111156115d0576115cf61142a565b5b6115dc8882890161152f565b9450945050604086013567ffffffffffffffff8111156115ff576115fe61142a565b5b61160b8882890161152f565b92509250509295509295909350565b600073ffffffffffffffffffffffffffffffffffffffff82169050919050565b60006116458261161a565b9050919050565b6116558161163a565b811461166057600080fd5b50565b6000813590506116728161164c565b92915050565b60008060006040848603121561169157611690611425565b5b600061169f86828701611663565b935050602084013567ffffffffffffffff8111156116c0576116bf61142a565b5b6116cc8682870161152f565b92509250509250925092565b6000819050919050565b6116eb816116d8565b81146116f657600080fd5b50565b600081359050611708816116e2565b92915050565b60006020828403121561172457611723611425565b5b6000611732848285016116f9565b91505092915050565b611744816116d8565b82525050565b600060208201905061175f600083018461173b565b92915050565b6000806040838503121561177c5761177b611425565b5b600061178a858286016116f9565b925050602061179b85828601611663565b9150509250929050565b6000602082840312156117bb576117ba611425565b5b60006117c98482850161150b565b91505092915050565b6117db8161163a565b82525050565b60006020820190506117f660008301846117d2565b92915050565b600081519050919050565b600082825260208201905092915050565b6000819050602082019050919050565b6118318161163a565b82525050565b60006118438383611828565b60208301905092915050565b6000602082019050919050565b6000611867826117fc565b6118718185611807565b935061187c83611818565b8060005b838110156118ad5781516118948882611837565b975061189f8361184f565b925050600181019050611880565b5085935050505092915050565b600060208201905081810360008301526118d4818461185c565b905092915050565b6000602082840312156118f2576118f1611425565b5b600061190084828501611663565b91505092915050565b600081519050919050565b600082825260208201905092915050565b6000819050602082019050919050565b61193e816114ea565b82525050565b600081519050919050565b600082825260208201905092915050565b60005b8381101561197e578082015181840152602081019050611963565b60008484015250505050565b6000601f19601f8301169050919050565b60006119a682611944565b6119b0818561194f565b93506119c0818560208601611960565b6119c98161198a565b840191505092915050565b60006060830160008301516119ec6000860182611935565b5060208301518482036020860152611a04828261199b565b91505060408301518482036040860152611a1e828261199b565b9150508091505092915050565b6000611a3783836119d4565b905092915050565b6000602082019050919050565b6000611a5782611909565b611a618185611914565b935083602082028501611a7385611925565b8060005b85811015611aaf5784840389528151611a908582611a2b565b9450611a9b83611a3f565b925060208a01995050600181019050611a77565b50829750879550505050505092915050565b60006020820190508181036000830152611adb8184611a4c565b905092915050565b7f4e487b7100000000000000000000000000000000000000000000000000000000600052604160045260246000fd5b7f4e487b7100000000000000000000000000000000000000000000000000000000600052602260045260246000fd5b60006002820490506001821680611b5957607f821691505b602082108103611b6c57611b6b611b12565b5b50919050565b60008190508160005260206000209050919050565b60006020601f8301049050919050565b600082821b905092915050565b600060088302611bd47fffffffffffffffffffffffffffffffffffffffffffffffffffffffffffffffff82611b97565b611bde8683611b97565b95508019841693508086168417925050509392505050565b6000819050919050565b6000611c1b611c16611c11846114ea565b611bf6565b6114ea565b9050919050565b6000819050919050565b611c3583611c00565b611c49611c4182611c22565b848454611ba4565b825550505050565b600090565b611c5e611c51565b611c69818484611c2c565b505050565b5b81811015611c8d57611c82600082611c56565b600181019050611c6f565b5050565b601f821115611cd257611ca381611b72565b611cac84611b87565b81016020851015611cbb578190505b611ccf611cc785611b87565b830182611c6e565b50505b505050565b600082821c905092915050565b6000611cf560001984600802611cd7565b1980831691505092915050565b6000611d0e8383611ce4565b9150826002028217905092915050565b611d2782611944565b67ffffffffffffffff811115611d4057611d3f611ae3565b5b611d4a8254611b41565b611d55828285611c91565b600060209050601f831160018114611d885760008415611d76578287015190505b611d808582611d02565b865550611de8565b601f198416611d9686611b72565b60005b82811015611dbe57848901518255600182019150602085019450602081019050611d99565b86831015611ddb5784890151611dd7601f891682611ce4565b8355505b6001600288020188555050505b505050505050565b611df9816114ea565b82525050565b600082825260208201905092915050565b82818337600083830152505050565b6000611e2b8385611dff565b9350611e38838584611e10565b611e418361198a565b840190509392505050565b6000606082019050611e616000830188611df0565b8181036020830152611e74818688611e1f565b90508181036040830152611e89818486611e1f565b90509695505050505050565b6000611ea082611944565b611eaa8185611dff565b9350611eba818560208601611960565b611ec38161198a565b840191505092915050565b60006020820190508181036000830152611ee88184611e95565b905092915050565b600082905092915050565b611f058383611ef0565b67ffffffffffffffff811115611f1e57611f1d611ae3565b5b611f288254611b41565b611f33828285611c91565b6000601f831160018114611f625760008415611f50578287013590505b611f5a8582611d02565b865550611fc2565b601f198416611f7086611b72565b60005b82811015611f9857848901358255600182019150602085019450602081019050611f73565b86831015611fb55784890135611fb1601f891682611ce4565b8355505b6001600288020188555050505b50505050505050565b6000604082019050611fe06000830186611df0565b8181036020830152611ff3818486611e1f565b9050949350505050565b7f416363657373436f6e74726f6c3a2063616e206f6e6c792072656e6f756e636560008201527f20726f6c657320666f722073656c660000000000000000000000000000000000602082015250565b6000612059602f83611dff565b915061206482611ffd565b604082019050919050565b600060208201905081810360008301526120888161204c565b9050919050565b7f4e487b7100000000000000000000000000000000000000000000000000000000600052603260045260246000fd5b7f4e487b7100000000000000000000000000000000000000000000000000000000600052601160045260246000fd5b60006120f8826114ea565b91507fffffffffffffffffffffffffffffffffffffffffffffffffffffffffffffffff820361212a576121296120be565b5b600182019050919050565b7f6164647265737365732063616e206f6e6c79206265207265676973746572656460008201527f206f6e6365000000000000000000000000000000000000000000000000000000602082015250565b6000612191602583611dff565b915061219c82612135565b604082019050919050565b600060208201905081810360008301526121c081612184565b9050919050565b60006020820190506121dc6000830184611df0565b92915050565b600081905092915050565b7f416363657373436f6e74726f6c3a206163636f756e7420000000000000000000600082015250565b60006122236017836121e2565b915061222e826121ed565b601782019050919050565b600061224482611944565b61224e81856121e2565b935061225e818560208601611960565b80840191505092915050565b7f206973206d697373696e6720726f6c6520000000000000000000000000000000600082015250565b60006122a06011836121e2565b91506122ab8261226a565b601182019050919050565b60006122c182612216565b91506122cd8285612239565b91506122d882612293565b91506122e48284612239565b91508190509392505050565b60006122fb826114ea565b9150612306836114ea565b9250828202612314816114ea565b9150828204841483151761232b5761232a6120be565b5b5092915050565b600061233d826114ea565b9150612348836114ea565b92508282019050808211156123605761235f6120be565b5b92915050565b6000612371826114ea565b915060008203612384576123836120be565b5b600182039050919050565b7f537472696e67733a20686578206c656e67746820696e73756666696369656e74600082015250565b60006123c5602083611dff565b91506123d08261238f565b602082019050919050565b600060208201905081810360008301526123f4816123b8565b905091905056fe4f6e6c79207061727469636970616e74732063616e2072656769737465722044455273a26469706673582212207ed744c08f177545cd46255c51f17f96ef87ed0392d0e480652a91131426853f64736f6c63430008120033",
    "linkReferences": {},
    "deployedLinkReferences": {}
}