{
    "_format": "hh-sol-artifact-1",
    "contractName": "APEnergy",
    "sourceName": "contracts/APEnergy.sol",
    "abi": [
        {
            "anonymous": false,
            "inputs": [
                {
                    "indexed": true,
                    "internalType": "address",
                    "name": "participant",
                    "type": "address"
                },
                {
                    "indexed": false,
                    "internalType": "uint256",
                    "name": "timestamp",
                    "type": "uint256"
                }
            ],
            "name": "ParticipantAdded",
            "type": "event"
        },
        {
            "anonymous": false,
            "inputs": [
                {
                    "indexed": true,
                    "internalType": "address",
                    "name": "resource",
                    "type": "address"
                },
                {
                    "indexed": false,
                    "internalType": "uint256",
                    "name": "timestamp",
                    "type": "uint256"
                },
                {
                    "indexed": false,
                    "internalType": "string",
                    "name": "dayConsumption",
                    "type": "string"
                },
                {
                    "indexed": false,
                    "internalType": "string",
                    "name": "dayProduction",
                    "type": "string"
                }
            ],
            "name": "PowerLogged",
            "type": "event"
        },
        {
            "anonymous": false,
            "inputs": [
                {
                    "indexed": true,
                    "internalType": "address",
                    "name": "participant",
                    "type": "address"
                },
                {
                    "indexed": true,
                    "internalType": "address",
                    "name": "resource",
                    "type": "address"
                },
                {
                    "indexed": false,
                    "internalType": "uint256",
                    "name": "timestamp",
                    "type": "uint256"
                },
                {
                    "indexed": false,
                    "internalType": "string",
                    "name": "resourceType",
                    "type": "string"
                }
            ],
            "name": "ResourceAdded",
            "type": "event"
        },
        {
            "anonymous": false,
            "inputs": [
                {
                    "indexed": true,
                    "internalType": "bytes32",
                    "name": "role",
                    "type": "bytes32"
                },
                {
                    "indexed": true,
                    "internalType": "bytes32",
                    "name": "previousAdminRole",
                    "type": "bytes32"
                },
                {
                    "indexed": true,
                    "internalType": "bytes32",
                    "name": "newAdminRole",
                    "type": "bytes32"
                }
            ],
            "name": "RoleAdminChanged",
            "type": "event"
        },
        {
            "anonymous": false,
            "inputs": [
                {
                    "indexed": true,
                    "internalType": "bytes32",
                    "name": "role",
                    "type": "bytes32"
                },
                {
                    "indexed": true,
                    "internalType": "address",
                    "name": "account",
                    "type": "address"
                },
                {
                    "indexed": true,
                    "internalType": "address",
                    "name": "sender",
                    "type": "address"
                }
            ],
            "name": "RoleGranted",
            "type": "event"
        },
        {
            "anonymous": false,
            "inputs": [
                {
                    "indexed": true,
                    "internalType": "bytes32",
                    "name": "role",
                    "type": "bytes32"
                },
                {
                    "indexed": true,
                    "internalType": "address",
                    "name": "account",
                    "type": "address"
                },
                {
                    "indexed": true,
                    "internalType": "address",
                    "name": "sender",
                    "type": "address"
                }
            ],
            "name": "RoleRevoked",
            "type": "event"
        },
        {
            "inputs": [],
            "name": "DEFAULT_ADMIN_ROLE",
            "outputs": [
                {
                    "internalType": "bytes32",
                    "name": "",
                    "type": "bytes32"
                }
            ],
            "stateMutability": "view",
            "type": "function"
        },
        {
            "inputs": [],
            "name": "addParticipant",
            "outputs": [],
            "stateMutability": "nonpayable",
            "type": "function"
        },
        {
            "inputs": [
                {
                    "internalType": "address",
                    "name": "_resourceAddress",
                    "type": "address"
                },
                {
                    "internalType": "string",
                    "name": "_resourceType",
                    "type": "string"
                }
            ],
            "name": "addResource",
            "outputs": [],
            "stateMutability": "nonpayable",
            "type": "function"
        },
        {
            "inputs": [
                {
                    "internalType": "address",
                    "name": "_participantAddress",
                    "type": "address"
                }
            ],
            "name": "getParticipantResources",
            "outputs": [
                {
                    "internalType": "address[]",
                    "name": "resources_",
                    "type": "address[]"
                }
            ],
            "stateMutability": "view",
            "type": "function"
        },
        {
            "inputs": [],
            "name": "getParticipants",
            "outputs": [
                {
                    "internalType": "address[]",
                    "name": "participants_",
                    "type": "address[]"
                }
            ],
            "stateMutability": "view",
            "type": "function"
        },
        {
            "inputs": [
                {
                    "internalType": "address",
                    "name": "_resource",
                    "type": "address"
                }
            ],
            "name": "getResourcePowerConsumption",
            "outputs": [
                {
                    "components": [
                        {
                            "internalType": "uint256",
                            "name": "timestamp",
                            "type": "uint256"
                        },
                        {
                            "internalType": "string",
                            "name": "dayConsumption",
                            "type": "string"
                        },
                        {
                            "internalType": "string",
                            "name": "dayProduction",
                            "type": "string"
                        }
                    ],
                    "internalType": "struct APEnergy.LoggedPower[]",
                    "name": "",
                    "type": "tuple[]"
                }
            ],
            "stateMutability": "view",
            "type": "function"
        },
        {
            "inputs": [
                {
                    "internalType": "bytes32",
                    "name": "role",
                    "type": "bytes32"
                }
            ],
            "name": "getRoleAdmin",
            "outputs": [
                {
                    "internalType": "bytes32",
                    "name": "",
                    "type": "bytes32"
                }
            ],
            "stateMutability": "view",
            "type": "function"
        },
        {
            "inputs": [
                {
                    "internalType": "bytes32",
                    "name": "role",
                    "type": "bytes32"
                },
                {
                    "internalType": "address",
                    "name": "account",
                    "type": "address"
                }
            ],
            "name": "grantRole",
            "outputs": [],
            "stateMutability": "nonpayable",
            "type": "function"
        },
        {
            "inputs": [
                {
                    "internalType": "bytes32",
                    "name": "role",
                    "type": "bytes32"
                },
                {
                    "internalType": "address",
                    "name": "account",
                    "type": "address"
                }
            ],
            "name": "hasRole",
            "outputs": [
                {
                    "internalType": "bool",
                    "name": "",
                    "type": "bool"
                }
            ],
            "stateMutability": "view",
            "type": "function"
        },
        {
            "inputs": [
                {
                    "internalType": "uint256",
                    "name": "_timestamp",
                    "type": "uint256"
                },
                {
                    "internalType": "string",
                    "name": "_dayConsumption",
                    "type": "string"
                },
                {
                    "internalType": "string",
                    "name": "_dayProduction",
                    "type": "string"
                }
            ],
            "name": "logPowerConsumption",
            "outputs": [],
            "stateMutability": "nonpayable",
            "type": "function"
        },
        {
            "inputs": [
                {
                    "internalType": "uint256",
                    "name": "",
                    "type": "uint256"
                }
            ],
            "name": "participants",
            "outputs": [
                {
                    "internalType": "address",
                    "name": "",
                    "type": "address"
                }
            ],
            "stateMutability": "view",
            "type": "function"
        },
        {
            "inputs": [
                {
                    "internalType": "bytes32",
                    "name": "role",
                    "type": "bytes32"
                },
                {
                    "internalType": "address",
                    "name": "account",
                    "type": "address"
                }
            ],
            "name": "renounceRole",
            "outputs": [],
            "stateMutability": "nonpayable",
            "type": "function"
        },
        {
            "inputs": [
                {
                    "internalType": "bytes32",
                    "name": "role",
                    "type": "bytes32"
                },
                {
                    "internalType": "address",
                    "name": "account",
                    "type": "address"
                }
            ],
            "name": "revokeRole",
            "outputs": [],
            "stateMutability": "nonpayable",
            "type": "function"
        },
        {
            "inputs": [
                {
                    "internalType": "bytes4",
                    "name": "interfaceId",
                    "type": "bytes4"
                }
            ],
            "name": "supportsInterface",
            "outputs": [
                {
                    "internalType": "bool",
                    "name": "",
                    "type": "bool"
                }
            ],
            "stateMutability": "view",
            "type": "function"
        }
    ],
    "bytecode": "0x60c06040527fffb743871ff677192c3a3b8a20e987c20c4e07a51039934079d57be89e25a0856080908152507fcd121b0f12ad3ac664bfec4c6cdef2ec02345000d81f4e9e651075fc22d1b9b560a09081525034801561005e57600080fd5b5060805160a0516124f8610092600039600081816105bd0152610f11015260008181610396015261066d01526124f86000f3fe608060405234801561001057600080fd5b50600436106100ea5760003560e01c80635aa68ac01161008c578063a217fddf11610066578063a217fddf1461026d578063d547741f1461028b578063e807b233146102a7578063fffefd91146102d7576100ea565b80635aa68ac0146101ef5780637c08c29f1461020d57806391d148541461023d576100ea565b8063248a9ca3116100c8578063248a9ca3146101575780632f2ff15d1461018757806335c1d349146101a357806336568abe146101d3576100ea565b806301ffc9a7146100ef57806306835e0d1461011f578063087f388a1461013b575b600080fd5b6101096004803603810190610104919061152b565b6102e1565b6040516101169190611573565b60405180910390f35b61013960048036038101906101349190611629565b61035b565b005b6101556004803603810190610150919061171c565b61059f565b005b610171600480360381019061016c91906117b2565b6107b6565b60405161017e91906117ee565b60405180910390f35b6101a1600480360381019061019c9190611809565b6107d5565b005b6101bd60048036038101906101b89190611849565b6107f6565b6040516101ca9190611885565b60405180910390f35b6101ed60048036038101906101e89190611809565b610835565b005b6101f76108b8565b604051610204919061195e565b60405180910390f35b61022760048036038101906102229190611980565b6109bd565b6040516102349190611b65565b60405180910390f35b61025760048036038101906102529190611809565b610b89565b6040516102649190611573565b60405180910390f35b610275610bf3565b60405161028291906117ee565b60405180910390f35b6102a560048036038101906102a09190611809565b610bfa565b005b6102c160048036038101906102bc9190611980565b610c1b565b6040516102ce919061195e565b60405180910390f35b6102df610dd9565b005b60007f7965db0b000000000000000000000000000000000000000000000000000000007bffffffffffffffffffffffffffffffffffffffffffffffffffffffff1916827bffffffffffffffffffffffffffffffffffffffffffffffffffffffff19161480610354575061035382610f86565b5b9050919050565b6040518060400160405280601c81526020017f4f6e6c79205265736f75726365732063616e206c6f6720706f776572000000008152506103bb7f000000000000000000000000000000000000000000000000000000000000000033610b89565b81906103fd576040517f08c379a00000000000000000000000000000000000000000000000000000000081526004016103f49190611bd1565b60405180910390fd5b50600460003373ffffffffffffffffffffffffffffffffffffffff1673ffffffffffffffffffffffffffffffffffffffff168152602001908152602001600020604051806060016040528088815260200187878080601f016020809104026020016040519081016040528093929190818152602001838380828437600081840152601f19601f82011690508083019250505050505050815260200185858080601f016020809104026020016040519081016040528093929190818152602001838380828437600081840152601f19601f8201169050808301925050505050505081525090806001815401808255809150506001900390600052602060002090600302016000909190919091506000820151816000015560208201518160010190816105289190611e2e565b50604082015181600201908161053e9190611e2e565b5050503373ffffffffffffffffffffffffffffffffffffffff167fa5c8caaedcd82f08e797ec322fd406fdb3ccaaba4487a53103e307cb86d7662d878787878760405161058f959493929190611f4b565b60405180910390a2505050505050565b6040518060600160405280602381526020016124a0602391396105e27f000000000000000000000000000000000000000000000000000000000000000033610b89565b8190610624576040517f08c379a000000000000000000000000000000000000000000000000000000000815260040161061b9190611bd1565b60405180910390fd5b506000600260008673ffffffffffffffffffffffffffffffffffffffff1673ffffffffffffffffffffffffffffffffffffffff16815260200190815260200160002090506106927f000000000000000000000000000000000000000000000000000000000000000086610ff0565b83838260000191826106a5929190611f9f565b50600360003373ffffffffffffffffffffffffffffffffffffffff1673ffffffffffffffffffffffffffffffffffffffff168152602001908152602001600020859080600181540180825580915050600190039060005260206000200160009091909190916101000a81548173ffffffffffffffffffffffffffffffffffffffff021916908373ffffffffffffffffffffffffffffffffffffffff1602179055508473ffffffffffffffffffffffffffffffffffffffff163373ffffffffffffffffffffffffffffffffffffffff167f607b971c351e1d01879047e5b98de391549a510f7f96305161590bcb87afd5db4287876040516107a79392919061206f565b60405180910390a35050505050565b6000806000838152602001908152602001600020600101549050919050565b6107de826107b6565b6107e781610ffe565b6107f18383611012565b505050565b6001818154811061080657600080fd5b906000526020600020016000915054906101000a900473ffffffffffffffffffffffffffffffffffffffff1681565b61083d6110f2565b73ffffffffffffffffffffffffffffffffffffffff168173ffffffffffffffffffffffffffffffffffffffff16146108aa576040517f08c379a00000000000000000000000000000000000000000000000000000000081526004016108a190612113565b60405180910390fd5b6108b482826110fa565b5050565b606060018054905067ffffffffffffffff8111156108d9576108d8611bf3565b5b6040519080825280602002602001820160405280156109075781602001602082028036833780820191505090505b50905060005b6001805490508110156109b9576001818154811061092e5761092d612133565b5b9060005260206000200160009054906101000a900473ffffffffffffffffffffffffffffffffffffffff1682828151811061096c5761096b612133565b5b602002602001019073ffffffffffffffffffffffffffffffffffffffff16908173ffffffffffffffffffffffffffffffffffffffff168152505080806109b190612191565b91505061090d565b5090565b6060600460008373ffffffffffffffffffffffffffffffffffffffff1673ffffffffffffffffffffffffffffffffffffffff168152602001908152602001600020805480602002602001604051908101604052809291908181526020016000905b82821015610b7e578382906000526020600020906003020160405180606001604052908160008201548152602001600182018054610a5b90611c51565b80601f0160208091040260200160405190810160405280929190818152602001828054610a8790611c51565b8015610ad45780601f10610aa957610100808354040283529160200191610ad4565b820191906000526020600020905b815481529060010190602001808311610ab757829003601f168201915b50505050508152602001600282018054610aed90611c51565b80601f0160208091040260200160405190810160405280929190818152602001828054610b1990611c51565b8015610b665780601f10610b3b57610100808354040283529160200191610b66565b820191906000526020600020905b815481529060010190602001808311610b4957829003601f168201915b50505050508152505081526020019060010190610a1e565b505050509050919050565b600080600084815260200190815260200160002060000160008373ffffffffffffffffffffffffffffffffffffffff1673ffffffffffffffffffffffffffffffffffffffff16815260200190815260200160002060009054906101000a900460ff16905092915050565b6000801b81565b610c03826107b6565b610c0c81610ffe565b610c1683836110fa565b505050565b6060600360008373ffffffffffffffffffffffffffffffffffffffff1673ffffffffffffffffffffffffffffffffffffffff1681526020019081526020016000208054905067ffffffffffffffff811115610c7957610c78611bf3565b5b604051908082528060200260200182016040528015610ca75781602001602082028036833780820191505090505b50905060005b600360008473ffffffffffffffffffffffffffffffffffffffff1673ffffffffffffffffffffffffffffffffffffffff16815260200190815260200160002080549050811015610dd357600360008473ffffffffffffffffffffffffffffffffffffffff1673ffffffffffffffffffffffffffffffffffffffff1681526020019081526020016000208181548110610d4857610d47612133565b5b9060005260206000200160009054906101000a900473ffffffffffffffffffffffffffffffffffffffff16828281518110610d8657610d85612133565b5b602002602001019073ffffffffffffffffffffffffffffffffffffffff16908173ffffffffffffffffffffffffffffffffffffffff16815250508080610dcb90612191565b915050610cad565b50919050565b60005b600180549050811015610ea8573373ffffffffffffffffffffffffffffffffffffffff1660018281548110610e1457610e13612133565b5b9060005260206000200160009054906101000a900473ffffffffffffffffffffffffffffffffffffffff1673ffffffffffffffffffffffffffffffffffffffff1603610e95576040517f08c379a0000000000000000000000000000000000000000000000000000000008152600401610e8c9061224b565b60405180910390fd5b8080610ea090612191565b915050610ddc565b506001339080600181540180825580915050600190039060005260206000200160009091909190916101000a81548173ffffffffffffffffffffffffffffffffffffffff021916908373ffffffffffffffffffffffffffffffffffffffff160217905550610f367f000000000000000000000000000000000000000000000000000000000000000033610ff0565b3373ffffffffffffffffffffffffffffffffffffffff167f287ab65235aa9a0baeed5b973fda48c77ebdc6f3dd931cfda1c082c0aecc1e7342604051610f7c919061226b565b60405180910390a2565b60007f01ffc9a7000000000000000000000000000000000000000000000000000000007bffffffffffffffffffffffffffffffffffffffffffffffffffffffff1916827bffffffffffffffffffffffffffffffffffffffffffffffffffffffff1916149050919050565b610ffa8282611012565b5050565b61100f8161100a6110f2565b6111db565b50565b61101c8282610b89565b6110ee57600160008084815260200190815260200160002060000160008373ffffffffffffffffffffffffffffffffffffffff1673ffffffffffffffffffffffffffffffffffffffff16815260200190815260200160002060006101000a81548160ff0219169083151502179055506110936110f2565b73ffffffffffffffffffffffffffffffffffffffff168173ffffffffffffffffffffffffffffffffffffffff16837f2f8788117e7eff1d82e926ec794901d17c78024a50270940304540a733656f0d60405160405180910390a45b5050565b600033905090565b6111048282610b89565b156111d757600080600084815260200190815260200160002060000160008373ffffffffffffffffffffffffffffffffffffffff1673ffffffffffffffffffffffffffffffffffffffff16815260200190815260200160002060006101000a81548160ff02191690831515021790555061117c6110f2565b73ffffffffffffffffffffffffffffffffffffffff168173ffffffffffffffffffffffffffffffffffffffff16837ff6391f5c32d9c69d2a47ea670b442974b53935d1edc7fd64eb21e047a839171b60405160405180910390a45b5050565b6111e58282610b89565b61125c576111f281611260565b6112008360001c602061128d565b60405160200161121192919061235a565b6040516020818303038152906040526040517f08c379a00000000000000000000000000000000000000000000000000000000081526004016112539190611bd1565b60405180910390fd5b5050565b60606112868273ffffffffffffffffffffffffffffffffffffffff16601460ff1661128d565b9050919050565b6060600060028360026112a09190612394565b6112aa91906123d6565b67ffffffffffffffff8111156112c3576112c2611bf3565b5b6040519080825280601f01601f1916602001820160405280156112f55781602001600182028036833780820191505090505b5090507f30000000000000000000000000000000000000000000000000000000000000008160008151811061132d5761132c612133565b5b60200101907effffffffffffffffffffffffffffffffffffffffffffffffffffffffffffff1916908160001a9053507f78000000000000000000000000000000000000000000000000000000000000008160018151811061139157611390612133565b5b60200101907effffffffffffffffffffffffffffffffffffffffffffffffffffffffffffff1916908160001a905350600060018460026113d19190612394565b6113db91906123d6565b90505b600181111561147b577f3031323334353637383961626364656600000000000000000000000000000000600f86166010811061141d5761141c612133565b5b1a60f81b82828151811061143457611433612133565b5b60200101907effffffffffffffffffffffffffffffffffffffffffffffffffffffffffffff1916908160001a905350600485901c9450806114749061240a565b90506113de565b50600084146114bf576040517f08c379a00000000000000000000000000000000000000000000000000000000081526004016114b69061247f565b60405180910390fd5b8091505092915050565b600080fd5b600080fd5b60007fffffffff0000000000000000000000000000000000000000000000000000000082169050919050565b611508816114d3565b811461151357600080fd5b50565b600081359050611525816114ff565b92915050565b600060208284031215611541576115406114c9565b5b600061154f84828501611516565b91505092915050565b60008115159050919050565b61156d81611558565b82525050565b60006020820190506115886000830184611564565b92915050565b6000819050919050565b6115a18161158e565b81146115ac57600080fd5b50565b6000813590506115be81611598565b92915050565b600080fd5b600080fd5b600080fd5b60008083601f8401126115e9576115e86115c4565b5b8235905067ffffffffffffffff811115611606576116056115c9565b5b602083019150836001820283011115611622576116216115ce565b5b9250929050565b600080600080600060608688031215611645576116446114c9565b5b6000611653888289016115af565b955050602086013567ffffffffffffffff811115611674576116736114ce565b5b611680888289016115d3565b9450945050604086013567ffffffffffffffff8111156116a3576116a26114ce565b5b6116af888289016115d3565b92509250509295509295909350565b600073ffffffffffffffffffffffffffffffffffffffff82169050919050565b60006116e9826116be565b9050919050565b6116f9816116de565b811461170457600080fd5b50565b600081359050611716816116f0565b92915050565b600080600060408486031215611735576117346114c9565b5b600061174386828701611707565b935050602084013567ffffffffffffffff811115611764576117636114ce565b5b611770868287016115d3565b92509250509250925092565b6000819050919050565b61178f8161177c565b811461179a57600080fd5b50565b6000813590506117ac81611786565b92915050565b6000602082840312156117c8576117c76114c9565b5b60006117d68482850161179d565b91505092915050565b6117e88161177c565b82525050565b600060208201905061180360008301846117df565b92915050565b600080604083850312156118205761181f6114c9565b5b600061182e8582860161179d565b925050602061183f85828601611707565b9150509250929050565b60006020828403121561185f5761185e6114c9565b5b600061186d848285016115af565b91505092915050565b61187f816116de565b82525050565b600060208201905061189a6000830184611876565b92915050565b600081519050919050565b600082825260208201905092915050565b6000819050602082019050919050565b6118d5816116de565b82525050565b60006118e783836118cc565b60208301905092915050565b6000602082019050919050565b600061190b826118a0565b61191581856118ab565b9350611920836118bc565b8060005b8381101561195157815161193888826118db565b9750611943836118f3565b925050600181019050611924565b5085935050505092915050565b600060208201905081810360008301526119788184611900565b905092915050565b600060208284031215611996576119956114c9565b5b60006119a484828501611707565b91505092915050565b600081519050919050565b600082825260208201905092915050565b6000819050602082019050919050565b6119e28161158e565b82525050565b600081519050919050565b600082825260208201905092915050565b60005b83811015611a22578082015181840152602081019050611a07565b60008484015250505050565b6000601f19601f8301169050919050565b6000611a4a826119e8565b611a5481856119f3565b9350611a64818560208601611a04565b611a6d81611a2e565b840191505092915050565b6000606083016000830151611a9060008601826119d9565b5060208301518482036020860152611aa88282611a3f565b91505060408301518482036040860152611ac28282611a3f565b9150508091505092915050565b6000611adb8383611a78565b905092915050565b6000602082019050919050565b6000611afb826119ad565b611b0581856119b8565b935083602082028501611b17856119c9565b8060005b85811015611b535784840389528151611b348582611acf565b9450611b3f83611ae3565b925060208a01995050600181019050611b1b565b50829750879550505050505092915050565b60006020820190508181036000830152611b7f8184611af0565b905092915050565b600082825260208201905092915050565b6000611ba3826119e8565b611bad8185611b87565b9350611bbd818560208601611a04565b611bc681611a2e565b840191505092915050565b60006020820190508181036000830152611beb8184611b98565b905092915050565b7f4e487b7100000000000000000000000000000000000000000000000000000000600052604160045260246000fd5b7f4e487b7100000000000000000000000000000000000000000000000000000000600052602260045260246000fd5b60006002820490506001821680611c6957607f821691505b602082108103611c7c57611c7b611c22565b5b50919050565b60008190508160005260206000209050919050565b60006020601f8301049050919050565b600082821b905092915050565b600060088302611ce47fffffffffffffffffffffffffffffffffffffffffffffffffffffffffffffffff82611ca7565b611cee8683611ca7565b95508019841693508086168417925050509392505050565b6000819050919050565b6000611d2b611d26611d218461158e565b611d06565b61158e565b9050919050565b6000819050919050565b611d4583611d10565b611d59611d5182611d32565b848454611cb4565b825550505050565b600090565b611d6e611d61565b611d79818484611d3c565b505050565b5b81811015611d9d57611d92600082611d66565b600181019050611d7f565b5050565b601f821115611de257611db381611c82565b611dbc84611c97565b81016020851015611dcb578190505b611ddf611dd785611c97565b830182611d7e565b50505b505050565b600082821c905092915050565b6000611e0560001984600802611de7565b1980831691505092915050565b6000611e1e8383611df4565b9150826002028217905092915050565b611e37826119e8565b67ffffffffffffffff811115611e5057611e4f611bf3565b5b611e5a8254611c51565b611e65828285611da1565b600060209050601f831160018114611e985760008415611e86578287015190505b611e908582611e12565b865550611ef8565b601f198416611ea686611c82565b60005b82811015611ece57848901518255600182019150602085019450602081019050611ea9565b86831015611eeb5784890151611ee7601f891682611df4565b8355505b6001600288020188555050505b505050505050565b611f098161158e565b82525050565b82818337600083830152505050565b6000611f2a8385611b87565b9350611f37838584611f0f565b611f4083611a2e565b840190509392505050565b6000606082019050611f606000830188611f00565b8181036020830152611f73818688611f1e565b90508181036040830152611f88818486611f1e565b90509695505050505050565b600082905092915050565b611fa98383611f94565b67ffffffffffffffff811115611fc257611fc1611bf3565b5b611fcc8254611c51565b611fd7828285611da1565b6000601f8311600181146120065760008415611ff4578287013590505b611ffe8582611e12565b865550612066565b601f19841661201486611c82565b60005b8281101561203c57848901358255600182019150602085019450602081019050612017565b868310156120595784890135612055601f891682611df4565b8355505b6001600288020188555050505b50505050505050565b60006040820190506120846000830186611f00565b8181036020830152612097818486611f1e565b9050949350505050565b7f416363657373436f6e74726f6c3a2063616e206f6e6c792072656e6f756e636560008201527f20726f6c657320666f722073656c660000000000000000000000000000000000602082015250565b60006120fd602f83611b87565b9150612108826120a1565b604082019050919050565b6000602082019050818103600083015261212c816120f0565b9050919050565b7f4e487b7100000000000000000000000000000000000000000000000000000000600052603260045260246000fd5b7f4e487b7100000000000000000000000000000000000000000000000000000000600052601160045260246000fd5b600061219c8261158e565b91507fffffffffffffffffffffffffffffffffffffffffffffffffffffffffffffffff82036121ce576121cd612162565b5b600182019050919050565b7f6164647265737365732063616e206f6e6c79206265207265676973746572656460008201527f206f6e6365000000000000000000000000000000000000000000000000000000602082015250565b6000612235602583611b87565b9150612240826121d9565b604082019050919050565b6000602082019050818103600083015261226481612228565b9050919050565b60006020820190506122806000830184611f00565b92915050565b600081905092915050565b7f416363657373436f6e74726f6c3a206163636f756e7420000000000000000000600082015250565b60006122c7601783612286565b91506122d282612291565b601782019050919050565b60006122e8826119e8565b6122f28185612286565b9350612302818560208601611a04565b80840191505092915050565b7f206973206d697373696e6720726f6c6520000000000000000000000000000000600082015250565b6000612344601183612286565b915061234f8261230e565b601182019050919050565b6000612365826122ba565b915061237182856122dd565b915061237c82612337565b915061238882846122dd565b91508190509392505050565b600061239f8261158e565b91506123aa8361158e565b92508282026123b88161158e565b915082820484148315176123cf576123ce612162565b5b5092915050565b60006123e18261158e565b91506123ec8361158e565b925082820190508082111561240457612403612162565b5b92915050565b60006124158261158e565b91506000820361242857612427612162565b5b600182039050919050565b7f537472696e67733a20686578206c656e67746820696e73756666696369656e74600082015250565b6000612469602083611b87565b915061247482612433565b602082019050919050565b600060208201905081810360008301526124988161245c565b905091905056fe4f6e6c79207061727469636970616e74732063616e2072656769737465722044455273a2646970667358221220474ad6282d927abdd41a31518fb28a35d71727076ebe7a0d09cb50eb7fc60af564736f6c63430008120033",
    "linkReferences": {},
    "deployedLinkReferences": {}
}